:020000040800F2
:1000000018070020B50100082D1700080913000883
:1000100029170008710200084117000800000000BD
:10002000000000000000000000000000351700087C
:100030007502000800000000311700083917000899
:10004000CF010008CF010008CF010008CF01000850
:10005000CF010008CF010008CF010008CF01000840
:10006000CF010008CF010008CF010008CF01000830
:10007000CF010008CF010008CF010008CF01000820
:10008000CF010008CF010008CF010008CF01000810
:10009000CF010008CF010008CF010008CF01000800
:1000A000CF010008CF010008CF010008CF010008F0
:1000B000CF010008CF010008CF010008CF010008E0
:1000C000CF010008CF010008CF010008CF010008D0
:1000D000CF010008CF010008CF010008CF010008C0
:1000E000CF010008CF010008CF01000800F002F89E
:1000F00000F050F814A696E8000CB244B344DA4578
:1001000001D100F047F8BAE80F000FA696E83000DA
:10011000A5EB040504EB0607AAEB0704A7F101070A
:100120004FEA15154FEA3414A4F10104AC4201D38F
:1001300000F030F813F0010F18BFFB1A43F0010371
:1001400000F001F8DBE71847FC1900001C1A00005A
:10015000103A24BF78C878C1FAD8520724BF30C8F3
:1001600030C144BF04680C60704700007047000055
:100170000023002400250026103A28BF78C1FBD8B0
:10018000520728BF30C148BF0B6070471FB51FBD65
:1001900010B510BD00F031F81146FFF7F7FF01F080
:1001A000DFFB00F04FF803B4FFF7F2FF03BC00F0F1
:1001B00057F800000948804709480047FEE7FEE776
:1001C000FEE7FEE7FEE7FEE7FEE7FEE7FEE7FEE707
:1001D00004480549054A064B704700003D170008D2
:1001E000ED00000818010020180700201803002067
:1001F00018030020704770477047754600F02CF8D0
:10020000AE4605006946534620F00700854618B003
:1002100020B5FFF7DDFFBDE820404FF000064FF0AE
:1002200000074FF000084FF0000BAC46ACE8C009E7
:10023000ACE8C009ACE8C009ACE8C00921F007018E
:100240008D46704710B50446AFF300802046BDE8E8
:100250001040FFF7A8BF00000048704710000020C2
:1002600001491820ABBEFEE72600020070470000DF
:10027000FEE7000070470000B0B5044600F018F932
:10028000054640F20000C2F200000078611C18BF71
:10029000044400BF00F00CF9401BA042FAD3B0BDEB
:1002A0002DE9F04F82B00E68002E00F0FD8041F283
:1002B0000042C4F20102042340F2004E904208BF03
:1002C00003234FF6FF7CC4F2010E009300240123A8
:1002D000C1F2100C4FF0000A4FF000094BE000BFD4
:1002E00041F20002C4F20102009F904208BF0227BF
:1002F00004F00C030F229A402BEA020207FA03F3E0
:100300004FEA9A051A4346F825204E6840F20C45FC
:10031000F202DEF8082054BF22EA080242EA08028C
:10032000C4F20105CEF808202A68B30254BF22EABD
:10033000080242EA08022A60B303DEF8042054BF30
:1003400022EA080242EA0802F303CEF80420DEF8AB
:1003500000204FF0010354BF22EA080242EA0802DB
:10036000CEF800200E680AF1010A36FA0AF204F10A
:10037000040400F0998003FA0AFB16EA0B08F1D096
:100380004E68664512DC122E56D8DFE806F0350BB3
:100390004D49555555555555555555555555554531
:1003A000510000BFD1F80C9046E000BF4FF6FF723D
:1003B000C1F2210296420FDC0022C1F211029642E4
:1003C0001AD00022C1F21202964215D00022C1F2C8
:1003D0002102964210D02FE00022C1F22202964262
:1003E0000AD00022C1F23102964205D00022C1F2A9
:1003F0003202964220D100BF8A684AB1012A14BF56
:10040000C0F814B0C0F810B04FF0080914E000BFF5
:100410004FF0040910E000BFCA6802F104090BE0C4
:100420004FF0000908E000BFCA6802F1080903E0C4
:10043000CA6802F10C0900BF02462646B8F5807F63
:1004400024BF0432203E17680F25B54027EA050572
:1004500009FA06F635431560CA79D2067FF582AFF0
:1004600041F21803C4F202031A68AEF57E7642F038
:1004700001021A601A6802F001020192019A2AF040
:10048000030256F802B040F60002C4F201029042A4
:1004900008D040F60042C4F2010290427FF420AF3F
:1004A000012725E7002723E702B0BDE8F08F000011
:1004B00040F21410C2F2000000687047002804BF28
:1004C00001207047F0B581B0044690F83D0028B98E
:1004D000002084F83C00204600F090F9242084F8A5
:1004E0003D002068016821F001010160016841F4CC
:1004F00000410160016821F40041016000F036FB19
:10050000636848F2A16CC0F2010C40F60011C0F221
:100510003D0163453CBF48F28041C0F21E01884264
:1005200002D2012001B0F0BD4DF68361C4F21B314F
:10053000A0FB01122168970CD1F804E04FF49676E5
:100540002EF03F0545EA92454D60774348F6381650
:100550000D6AC0F24106A7FB067625F03F0763450A
:1005600038BF960C721C3A430A62CA6948F2A06608
:100570004CF6FF77C0F20106B34222EA07020BD81D
:1005800001385B00B0FBF3F001306FF31F3004283B
:1005900098BF04201BE000BFA768013857B1192796
:1005A0007B43B0FBF3F001306FF31F3070B100F507
:1005B000804007E003EB4303B0FBF3F001306FF33F
:1005C0001F3018B100F5004001E000BF01201043CA
:1005D000C8610868D4E9072320F0C000104318431D
:1005E0000860886848F2FF3204F10C0790438CCF12
:1005F00018431043A6698860C86820F0FF0038439C
:100600003043C860086840F00100086000202021E5
:10061000206484F83D10206384F83E0001B0F0BDF2
:100620002DE9F04383B01E46174689460446FFF77E
:100630003FFF94F83D10202924D10546206800BFD3
:10064000816989071AD5FFF733FF411B20681A29F2
:10065000F6D381698907F3D500202021206384F82F
:100660003D1084F83E00216C41F02001216484F8A3
:100670003C00022003B0BDE8F08300BF94F83C10BA
:10068000012903D1022003B0BDE8F083012184F8E1
:100690003C100168C90703D1016841F00101016004
:1006A000016840F2020821F400610160212184F810
:1006B0003D10102184F83E10002121646762668598
:1006C000618DC0F201082185A8F10211E162E16AA1
:1006D0000A9E11F5803F18BF01291DD1016841F420
:1006E0008071016020464FF00111002233460095D1
:1006F00000F06AFE50B120680068C00544BF4FF4A6
:1007000000702064012003B0BDE8F0832069B0F5DB
:10071000804F07D1FE2015E00829DFD0216B122978
:10072000DCD0DFE7062000EAD9102168F03008614C
:1007300008F10601204632462B4600F02BFF002828
:10074000E0D1FF20216800EA090008612046414607
:1007500032462B4600F01EFF0028D3D10020029025
:1007600020684169029180690290029806E000BF0A
:10077000204631462A4600F0C9FD18BB208D68B3DB
:10078000204631462A4600F071FFD8B9606A2168D8
:10079000024612F8013B0B616262628D013A62858A
:1007A000228D531E23854F697F07E1D51B04DFD0BF
:1007B000437802300B616062608D01386085901E65
:1007C0002085D5E7206C04289CD12068016841F47D
:1007D00000710160012003B0BDE8F083206801686A
:1007E00041F400710160202084F83D00002084F86D
:1007F0003E0084F83C0003B0BDE8F08310B586B03D
:10080000016845F20040C4F2000081424FF000014F
:10081000CDE90411CDE9021102D006B010BD00BF30
:1008200041F21804C4F20204216800F5384041F096
:1008300008012160216801F0080101910199C0219E
:100840000291122103910321059102A9FFF728FDCE
:10085000606840F400106060606800F4001001906F
:10086000019806B010BD000040F2000040F21411E3
:10087000C2F20000C2F2000100780A681044086069
:100880007047000080B542F20000C4F20200016827
:1008900041F010010160032000F07AF80F2000F011
:1008A00005F800F027F8002080BD000070B540F288
:1008B0000006C2F2000640F208013278C2F20001DE
:1008C0004FF47A730968B3FBF2F20446B1FBF2F11C
:1008D000084600F05FFB0F2C4FF0010508D838B92F
:1008E0004FF0FF3021460022002500F025F874600B
:1008F000284670BD82B041F21800C4F202000168BF
:10090000022241F001010160016801F00101019141
:100910000199416841F080514160406800F0805089
:10092000009000980420C4F20100016862F31A618B
:10093000016002B07047000010B54EF60C5CCEF2BC
:10094000000CDCF80030C3F3022E8EF00704042CF8
:1009500028BF0424BEF103034FF0FF3E0EFA04F457
:1009600038BF0023A14399400EFA03F39A43114381
:1009700000F00F0200F160430901043A03F56443FB
:100980006244002848BF02F10C03197010BD00003A
:100990004EF60C51CEF200010A684FF6FF031A40E2
:1009A00060F30A2242F0806040F0FD7008607047FA
:1009B000002804BF012070472DE9F04381B042F2C6
:1009C0000008C4F202080446D8F800000D4600F002
:1009D000070081420CD9D8F8000020F00700284316
:1009E000C8F80000D8F8000000F00700A8426CD159
:1009F000206841F204098107C4F2020917D54107B2
:100A000005D5D9F8001041F4E061C9F800100107DC
:100A100005D5D9F8001041F46051C9F80010D9F893
:100A20000010A26821F0F0011143C9F80010C007BE
:100A300042D1D8F8000000F0070085420CD2D8F867
:100A4000000020F007002843C8F80000D8F8000094
:100A500000F00700A84238D12068410707D5D9F82F
:100A60000010E26821F4E0611143C9F800100007AA
:100A700008D5D9F80000216920F4605040EAC1008F
:100A8000C9F80000D9F8002002F00C00082841F253
:100A90000020C0F27A004DD141F63233C2F38341D7
:100AA000C0F60003595CD20338D440F60010C0F2FF
:100AB0003D0048433EE000BF606859F8041C02282E
:100AC00008D0012826D1890306D4012001B0BDE851
:100AD000F08300BF8901F8D5D9F8001021F0030197
:100AE0000843C9F80000FFF7E3FC064641F28837E7
:100AF000D9F80000616800F00C00B0EB810F98D0CD
:100B0000FFF7D6FC801BB842F2D9032001B0BDE844
:100B1000F08300BF8907D8D5DEE700BFD9F80020F1
:100B200041F63033C2F34042C0F600039A5C4843BA
:100B3000B0FBF2F0D9F8001041F61832C1F30311FE
:100B4000C0F60002515C40F2080220FA01F140F2C6
:100B50000400C2F200000068C2F200021160FFF758
:100B6000A5FE002001B0BDE8F083000040F20800BF
:100B700041F20401C2F20000C4F2020100680968F7
:100B800041F62832C1F30221C0F60002515CC84090
:100B900070470000002804BF012070472DE9F04194
:100BA00082B00446007841F20006C007C4F2020693
:100BB0000CD0706800F00C00042840F08180306890
:100BC000800303D56068002800F046812078800704
:100BD0001BD5706810F00C0F09D0706800F00C0085
:100BE000082840F087807068C00300F18380306877
:100BF000800703D52069012840F02E8130686169A3
:100C000020F0F80040EAC10030602078000713D4DB
:100C1000207840072CD4E569002D00F01881706819
:100C200000F00C00082840F0A780012D40F004815E
:100C3000012002B0BDE8F081A069002800F08480A6
:100C40000020C4F242200121C0F88014FFF730FCDC
:100C5000054600BF706A800700F1B280FFF728FCEC
:100C6000401B0228F6D9032002B0BDE8F08100BF86
:100C7000F0695FEAC00808D4F06940F08050F06184
:100C8000F06900F080500090009847F20007C4F22D
:100C900000073868C00549D4386840F4807038606F
:100CA000FFF706FC054600BF3868C0053ED4FFF7D5
:100CB000FFFB401B6428F7D9032002B0BDE8F08198
:100CC000706800F00C00082803D17068C0033FF57D
:100CD00076AF61683068002900F00C81B1F5A02F73
:100CE00000F00081B1F5803F40F01A8140F480307F
:100CF0001CE100BF2069002840F20000C4F242203D
:100D000000F0888001210160FFF7D2FB054600BF9B
:100D1000306880073FF572AFFFF7CAFB401B02281F
:100D2000F6D9032002B0BDE8F08100BFE168306A67
:100D3000002900F09D80052900F09280012940F0F3
:100D4000AF8040F00100B1E00020C4F24220002159
:100D5000C0F88014FFF7ACFB054600BF706A80073F
:100D60007FF556AFFFF7A4FB401B0228F6D90320FE
:100D700002B0BDE8F08100BF0027C4F24227002086
:100D80003866FFF795FB022D05460DD130688001CE
:100D900040F1DE80FFF78CFB401B02284FF0030080
:100DA000F4D902B0BDE8F081306880014FD5FFF77B
:100DB0007FFB401B02284FF00300F5D9F1E700BF8D
:100DC00040F20800C2F20000006844F6D351C1F2BC
:100DD0006201A0FB0101480A019000BF00BF019819
:100DE000411E002801913FF413AF00BF0198411E3E
:100DF000002801913FF40CAF00BF0198411E00286C
:100E000001913FF405AF00BF0198411E00280191F8
:100E1000E4D1FDE600210160FFF74AFB054600BF73
:100E2000306880077FF5F1AEFFF742FB401B0228D8
:100E30004FF00300F4D9B4E77068216A00F48032FF
:100E40008A4209D1616A00F47010884204D10020FE
:100E500002B0BDE8F08100BF012002B0BDE8F08122
:100E600040F004003062306A40F001001EE000BF34
:100E700020F001003062306A20F004003062FFF799
:100E800017FB054641F28837306A800720D5FFF707
:100E90000FFB401BB8424FF00300F5D981E700BFBC
:100EA00020F001003062306A20F004003062FFF769
:100EB000FFFA054641F28837306A800708D4FFF709
:100EC000F7FA401BB842F7D9032002B0BDE8F08121
:100ED000B8F1000F3FF59FAEF06920F08050F0614F
:100EE00099E600BF40F480203060306840F48030E4
:100EF0001CE000BF20F480303060306820F4802097
:100F00003060FFF7D5FA0546306880037FF55EAEA6
:100F1000FFF7CEFA401B64284FF00300F4D940E7F6
:100F200020F480303060306820F480203060FFF79B
:100F3000BFFA0546306880033FF548AEFFF7B8FAC0
:100F4000401B6428F6D9032002B0BDE8F08100BF41
:100F5000206AB0F5803F05D17168A26821F40031A4
:100F6000114371607168626A21F47411114308437E
:100F7000706001203866FFF79BFA044630688001F4
:100F80003FF565AFFFF794FA001B02284FF003000E
:100F9000F4D906E7411E0020B0EB116F1CBF012001
:100FA00070474EF21002CEF2000251604EF623510D
:100FB000CEF20001F0230B700721906011607047A2
:100FC00090F83C20012A4FF0020236D010B580F88C
:100FD0003D200268D2F804E0D2F808C00C682EF078
:100FE0007003234340F2FF74C4F20004A242536032
:100FF0000ADCB2F1804F13D040F20043C4F2000388
:101000009A420DD011E000BF42F60043C4F2010342
:101010009A4205D040F60003C4F200039A4204D17C
:1010200049682CF08003194391600121002280F867
:101030003D1080F83C20BDE810401046704700008D
:10104000002804BF0120704710B590F83D1031B959
:10105000002180F83C10044600F070F82046022180
:1010600080F83D10016840F2FF740B68C4F2000480
:1010700042F6004CA142C4F2010C15DCB1F1804FE4
:101080001AD040F20042C4F20002914214D0A142B0
:1010900018DCB1F1804F1DD040F20042C4F20002D2
:1010A000914217D01AE000BF614505D040F600021A
:1010B000C4F200029142EAD1826823F07003134324
:1010C000A142E6DD614505D040F60002C4F200020F
:1010D000914203D1026923F440731343846923F0DE
:1010E0008002D0F804E0C368224361450A60CB6205
:1010F000C1F828E002D14269CCF8302001224A61CF
:101100000B69DB0703D00B6923F001030B6180F847
:10111000462080F83E2080F83F2080F8402080F86C
:10112000412080F8422080F8432080F8442080F855
:10113000452080F83D20002010BD00000068B0F17F
:10114000804F18BF704781B041F21C00C4F202000A
:10115000016841F001010160006800F001000090A9
:10116000009801B07047000090F83C20012A4FF031
:1011700002026CD080B580F83D20D0F800C04FF658
:101180007772DCF8083023EA0202CCF808200B68FA
:101190004F2B29DC1F2B45DD202B46D0302B44D094
:1011A000402B40F0AF80D1F804E0C968DCF8203073
:1011B000DCF8202022F00102CCF82020DCF81820F6
:1011C00022F0F00242EA011123F00A0242EA0E0282
:1011D000CCF81810CCF82020DCF8081041F04701BA
:1011E00021F0300128E000BF6F2B33DDB3F5005F45
:1011F00074D0B3F5805F21D0702B40F08380D1E9AB
:1012000001E3C968DCF8082043EA0E0322F47F42B8
:1012100043EA01211143CCF80810DCF8081041F032
:10122000770109E00BB1102B6CD1DCF8081021F02C
:101230007001194341F00701CCF808100022012188
:1012400080F83D10002180F83C10BDE88040104639
:10125000704700BF502B21D0602B53D1D1F804E050
:10126000C968DCF82030DCF8202022F01002CCF82D
:101270002020DCF8182022F4704242EA013123F0E9
:10128000A00242EA0E12CCF81810CCF82020DCF8AC
:10129000081041F0670121F01001CDE7D1F804E01A
:1012A000C968DCF82030DCF8202022F00102CCF8FC
:1012B0002020DCF8182022F0F00242EA011123F08D
:1012C0000A0242EA0E02CCF81810CCF82020DCF812
:1012D000081041F0570121F02001ADE7D1E901E309
:1012E000C968DCF8082043EA0E0322F47F4243EA8F
:1012F00001211143CCF80810DCF8081041F48041BA
:101300009AE700BF01229AE7FEE7000070B5036884
:10131000044653F8140F400711D40E46481C29D038
:1013200086BB00BF1868400527D4FFF7C1F82368C3
:1013300053F8140F400737D518684007F2D500203E
:1013400070BD00BF18684007F9D41868400514D470
:1013500018684007F3D4186840050ED41868400791
:10136000EDD41868400508D4186840074FF0000015
:1013700048BF70BD18684005E4D56FF48060186000
:10138000042012E0154603E053F8140F4007D6D4AA
:1013900018684005F1D4FFF78BF8401B2368B04272
:1013A000F2D958694007EFD4202000212022216380
:1013B00084F83D2084F83E10226C10432064012004
:1013C00084F83C1070BD00002DE9F041054600682E
:1013D0001E46144601F47F0201338FB242D0DDF87D
:1013E0001880B2F5803F40F0878040693840C01BCC
:1013F000B0FA80F04009844240F0C8804EB924E041
:1014000040693840C01BB0FA80F04009844240F087
:10141000BD80FFF74DF8A0EB08012868B142EFD975
:1014200041693940C91BB1FA81F149098C42E7D1C0
:101430009BE000BF40693840C01BB0FA80F0400913
:1014400084424FF0000040F0A280FFF731F8286896
:1014500041693940C91BB1FA81F149098C42E9D18E
:1014600083E000BFB2F5803F24D100BF416939401D
:10147000C91BB1FA81F149098C4240F0878041696A
:101480003940C91BB1FA81F149098C4240F07E8094
:1014900041693940C91BB1FA81F149098C4275D1C2
:1014A00041693940C91BB1FA81F149098C42DDD04B
:1014B0006CE000BF81693940C91BB1FA81F149096B
:1014C0008C4263D181693940C91BB1FA81F1490964
:1014D0008C425BD181693940C91BB1FA81F149095C
:1014E0008C4253D181693940C91BB1FA81F1490954
:1014F0008C42DFD04AE000BF80693840C01BB0FAA0
:1015000080F04009844241D146B923E080693840E7
:10151000C01BB0FA80F04009844237D1FEF7C8FF03
:10152000A0EB08012868B142F0D981693940C91B94
:10153000B1FA81F149098C42E8D116E0806938405E
:10154000C01BB0FA80F0400984424FF0000018BF81
:10155000BDE8F081FEF7ACFF286881693940C91BFE
:10156000B1FA81F149098C42E8D100202021286399
:1015700085F83D1085F83E00296C41F02001296472
:1015800085F83C000120BDE8F08100BF0020BDE8E7
:10159000F0810000F0B581B0044600681D46436943
:1015A0008FB203EA0701B94202D1002001B0F0BDB9
:1015B0004169164601323CD0490512D47EB300BFC2
:1015C000FEF776FF411B2068B14203D941693940DB
:1015D000B9422BD141693940B942E6D04169490548
:1015E000EED5016841F4007101606FF480614161E2
:1015F000042000212022216384F83D2084F83E103D
:10160000226C1043206484F83C10012001B0F0BD2E
:1016100041693940B942C8D041694905E1D4FEF772
:1016200047FF206841693940B942F1D02020E0E706
:1016300041694905D5D441693940B942B5D04169BC
:101640004905CED441693940B942AED04169490516
:10165000C7D441693940B942A7D041694905C0D4CE
:1016600041693940B942E3D19FE7000070B5036892
:10167000044653F8140F000611D40E46481C29D016
:1016800086BB00BF1868400527D4FEF711FF23680A
:1016900053F8140F000637D518680006F2D500205D
:1016A00070BD00BF18680006F9D41868400514D44E
:1016B00018680006F3D4186840050ED418680006B0
:1016C000EDD41868400508D4186800064FF00000F3
:1016D00048BF70BD18684005E4D56FF4806018609D
:1016E000042012E0154603E053F8140F0006D6D488
:1016F00018684005F1D4FEF7DBFE401B2368B042BA
:10170000F2D958690006EFD420200021202221635D
:1017100084F83D2084F83E10226C104320640120A0
:1017200084F83C1070BD0000FEE70000FEE70000FA
:101730007047000070470000FFF796B87047000040
:10174000FEE700002DE9F04184B0044648F68C0223
:10175000C0F60C020068217902924FF0640802AAD8
:101760000423CDF80080FEF75BFF42F62D165027CC
:10177000C0F60D1603AD00BF206821792A46042368
:101780000396CDF80080FEF74BFF013FF4D104B083
:10179000BDE8F081032A88BF7047DFE802F0030B41
:1017A000070900BF6FF07F02514004E06C3902E08E
:1017B0002C3900E0403980B582B021F00F020901D8
:1017C00002F10C0308328DF804308DF8052001F188
:1017D0000C0203688DF8062001F1080201798DF8EA
:1017E00007204FF0640C01AA18460423CDF800C06E
:1017F000FEF716FF02B0BDE88040704770B582B0BA
:1018000004463220FEF738FD43F63C062068217975
:10181000C0F60C06642501AA042301960095FEF784
:10182000FFFE0520FEF728FD2068217901AA042388
:1018300001960095FEF7F4FE0120FEF71DFD2068DD
:10184000217901AA042301960095FEF7E9FE0A20FA
:10185000FEF712FD42F62C02C0F60C022068217938
:10186000019201AA04230095FEF7DAFE0A20FEF792
:1018700003FD42F62C02C8F68C0220682179019201
:1018800001AA04230095FEF7CBFE0120FEF7F4FC2D
:1018900040F60C02C8F68C0220682179019201AA58
:1018A00004230095FEF7BCFE0120FEF7E5FC40F6A0
:1018B0000C02C1F61C0220682179019201AA0423BE
:1018C0000095FEF7ADFE0220FEF7D6FC40F60C02B6
:1018D000C6F66C0220682179019201AA04230095C2
:1018E000FEF79EFE0120FEF7C7FC40F60C02CCF688
:1018F000CC0220682179019201AA04230095FEF709
:101900008FFE02B070BD00000A78002A08BF704741
:10191000F0B583B004464E1E642702AD22F00F00DE
:10192000110100F10D0209308DF8090001F10D00DF
:101930008DF808208DF80A0001F10902206821794C
:101940008DF80B202A4604230097FEF769FEB27833
:101950000136002AE2D103B0BDE8F0407047000034
:1019600090B0FEF78FFF00240120CDE90B44CDE9B4
:1019700009440A9010200B904FF4601002250F903C
:1019800006A8CDE907440695CDE90D54FFF702F905
:1019900020B1EFF3108072B6FEE700BF0F20CDE953
:1019A00000054FF48060CDE90304684602210294EB
:1019B000FEF7FEFF20B1EFF3108072B6FEE700BF26
:1019C00041F21800C4F20200016840F2C00541F083
:1019D000040101600168C2F2000501F004010691F2
:1019E00006990168002641F008010160006848F28C
:1019F000A06100F008000690069845F20040C4F28D
:101A00000000C0F201014FF4804285E843002846FF
:101A1000C5E90362C5E90566C5E90766FEF74EFD3F
:101A200020B1EFF3108072B6FEE700BF40F2700401
:101A3000C2F200044FF08041204640F8081F3F21C9
:101A40004FF6FF720996CDE90766CDE90066C0E959
:101A50000116C0E903268661FFF7F2FA20B1EFF321
:101A6000108072B6FEE700BF4FF4805004F1080604
:101A7000069006A93046FFF777FB28B1EFF31080F8
:101A800072B600BFFEE700BF69463046FFF798FA1E
:101A900020B1EFF3108072B6FEE700BF4E20207138
:101AA00020462560FFF7AAFE2046FFF74BFE45F2D1
:101AB000206944F2551A44F6567B44F6203744F226
:101AC0004218C4F64969C4F24E7AC5F2201B06AD2D
:101AD0004126C4F64877C4F6430800BF20460021DB
:101AE0000022FFF757FE4820ADF824002046294683
:101AF000CDF82090CDE906BAFFF706FF2046002179
:101B00000122FFF747FE20462946ADF82060CDE9C7
:101B10000687FFF7F9FEE1E7000000000000000083
:101B20000102030406070809000000000102030483
:101B3000010202030405060708090A0B0C0D0E0F2B
:101B400010100000681B00080000002010000000BA
:101B500050010008781B0008100000200807000052
:101B600070010008000000000100000010000000EB
:081B700000127A0000000000E1
:04000005080000ED02
:00000001FF
